:020000020000FC
:100000000C9406000C9427000C9438000FEF0DBFE1
:1000100001E20EBF11270FEF07B90BB900270AB98C
:1000200008B900E0009369000DB303600DBB0FEF4A
:100030000DB900E000939A0000939B0001E000934B
:10004000910001E20093900078940C9449005527A8
:1000500021D020D0143649F004E1100F10939A00FB
:10006000002700939B0018B9189514E60C943300F0
:10007000552710D00FD0103049F004E1101B109319
:100080009A00002700939B0018B9189510E00C9473
:100090004400FFCF442753950000000003D05F3F8A
:1000A000C8F308956627439505D0000000004F3F30
:0E00B000C8F30895639500006A30E0F30895E8
:00000001FF
