:020000020000FC
:1000E400E0E0F3E00EEF15E021E040E050E031E025
:1000F400DD2464E6619364EC619368E761936CE9E1
:10010400619362E361936AEB6083E0E0F3E00030C3
:1001140014F00C948E00C22E4191CD1411F40C9461
:100124009400019523956191409F70015002000C49
:10013400111C000C111C000C111C000C111C000CD7
:10014400111C000C111C000C111C000C111C13F0D0
:100154000C94AD007FEFCD1411F40C94BA00E00CB4
:10016400F11CE094F094E30EFD1C01950C94BC008A
:10017400E00CF11C6D152CF0E60EFD1CA7010C948F
:10018400C7006195E61AFD08A701121730F6FFCFE4
:00000001FF
