:020000020000FC
:040000000C947200EA
:1000E4004427F2E0E0E041934083F2E0E2E0419310
:1000F4004083F2E0E4E041934083F2E0E7E041939F
:10010400419341934193419341934193419341934B
:100114004193F2E0E1E1419341934193419341934F
:10012400F2E0E6E14193F2E0E6E04193FF240FEFD1
:100134000DBF01E20EBFC7E0D2E0A1E1B2E000E0F2
:100144000D9300EF00930A0188270FEF00BB01B95C
:1001540007B9002701BB02B900E3DDD1F6D111D202
:1001640000E3D9D1F2D104D200E3D5D1EED100E33A
:10017400D2D1EBD108E0CFD1E8D101E0CCD1E5D1A7
:1001840006E0C9D1E2D10EE0C6D1DFD100D23FEE04
:10019400222730930B010FEF0A95F1F70091090123
:1001A4000F700F3061F031E01127402F432319F411
:1001B4000DD00C94C8001395330F0C94D700233042
:1001C40029F30894331F23950C94CB00233029F092
:1001D400133009F0C3C00C947401103031F01130A5
:1001E400D1F0123001F00C94230183959DE201E0DB
:1001F4000D93F2E0E0E06191708169937993772740
:100204006627F2E0E0E061937083F2E0E6E040818B
:1002140043954083E0C083959BE200E00D93F2E0B8
:10022400E0E0619170816993799377276627F2E022
:10023400E0E061937083F2E0E6E04081439540831F
:10024400CAC083959DE3F2E0E0E061917081699317
:10025400799377276627F2E0E0E06193708344277F
:10026400C7E0D2E0A1E1B2E0F2E0E0E041934083F4
:100274004395F2E0E2E069917991619370830D9185
:10028400013089F0F2E0E0E06181760F71836081F2
:10029400F2E0E2E07081671FF2E0E0E060830AF4DC
:1002A40013C0552711C0F2E0E0E06181671B618350
:1002B4006081F2E0E2E07081670BF2E0E0E06083ED
:1002C4000AF002C051E000C0481794F2F2E0E0E006
:1002D40061917081F2E0E4E0619370830C94F10128
:1002E400882779C0203021F0213059F0223069F17B
:1002F4009AE2F2E0E6E1F2E0E6E1408143954083F0
:100304006AC0F2E0E0E061917081770F661FF2E06D
:10031400E2E061937083770F661F770F661FF2E048
:10032400E0E0619370837081F2E0E2E06181760F36
:10033400F2E0E0E071836081F2E0E2E07081761F38
:10034400F2E0E0E0708390E346C093E2F2E0E6E19D
:10035400F2E0E6E14081439540833DC04427F2E06A
:10036400E6E041934083F2E0E0E061917081770F31
:10037400661FF2E0E2E061937083770F661F770FE8
:10038400661FF2E0E0E0619370837081F2E0E2E0E6
:100394006181760FF2E0E0E071836081F2E0E2E0F7
:1003A4007081761FF2E0E0E0708391E343E0149FF4
:1003B400900D920F020E0394F2E0E0E071816081EF
:1003C400402D740F4427641FF2E0E0E071836083E2
:1003D40002C00C947502092FA9D0B7D0D7CEF2E091
:1003E400E6E100810030A9F78827C9E1D2E00C9446
:1003F4000E02F2E0E4E000810095008301810095A3
:100404000183F2E0E4E041E00181040F0183008113
:100414004427041F008352E0513059F3F2E0E4E032
:100424000081F2E0E2E00083F2E0E4E00181F2E046
:10043400E2E00183F2E0E2E001810A30008140E081
:100444000407A0F000C0F2E0E7E141E00181040FFD
:10045400018300814427041F0083F2E0E2E001816C
:100464000A500183008100400083E4CF8395F2E0C9
:10047400E2E001810993F2E0E7E10081F2E0E4E0E7
:100484000083F2E0E7E10181F2E0E4E00183442744
:10049400F2E0E7E141934083853018F10DE346D063
:1004A40054D0F2E0E9E140E30481040F002F3ED090
:1004B4004CD00381040F002F39D047D00281040FA0
:1004C400002F34D042D00181040F002F2FD03DD013
:1004D4000081040F002F2AD038D000C05230C1F060
:1004E400FFCF0C940E0209E421D02FD00EE41ED0CD
:1004F4002CD006E51BD029D001E418D026D00CE47A
:1005040015D023D009E412D020D004E40FD01DD09C
:100514000DE20CD01AD001BB0000169A00000000B6
:1005240000001698000000000000089501BB179A0F
:10053400000000000000169A000000000000169859
:10054400000000000000179808950F93002700BBD7
:1005540001BB159A0000169A0000000000000FB1BC
:10056400169807FDF7CF15980FEF00BB0F9108956C
:100574008F939F939FE08CE90197F1F79F918F915F
:100584000895F6DFF5DFF4DFF3DFF2DF0895F9DF36
:10059400F8DFF7DFF6DFF5DFF4DFF3DFF2DFF1DFBB
:1005A400F0DFEFDFEEDFEDDFECDFEBDFEADFE9DFEB
:1005B400E8DFE7DFE6DFE5DFE4DFE3DFE2DFE1DF1B
:0805C400E0DFDFDFDEDF089558
:00000001FF
