:020000020000FC
:040000000C9430002C
:04000C000C948100CF
:10005C000C94F1010FEF0DBF01E20EBFF2E0E2E0F4
:10006C00112711931083F2E0E0E011271193108314
:10007C00F2E0E5E0112711931083F2E0E4E01127A0
:10008C001083F2E0E9E011271083F2E0E7E011279A
:10009C0011931083F2E0EAE000270193019301939E
:1000AC000193019301930FEF00BB01B9002701BB32
:1000BC0002B900E3A5D1BED1D9D101E0A1D1BAD109
:1000CC0006E09ED1B7D10EE09BD1B4D10FEF08B9A9
:1000DC000FEF07B9552700E0009369000DB30460DA
:1000EC000DBB002704BD01E005BD01E000936E00CF
:1000FC0078940C940302F2E0E2E011E02181120FFB
:10010C00118311272081121F1083F2E0E2E001819C
:10011C0008B9ACD1F2E0E2E01127119310831895E5
:10012C0001E06ED187D1F2E0E9E011271083F2E013
:10013C00E7E011271193108314C0F2E0E2E0218173
:10014C001AE0211B2183208110E0210B2083F2E097
:10015C00E7E011E02181120F118311272081121F7A
:10016C001083F2E0E2E0119120812A3020E01207A6
:10017C000CF0E3CFF2E0E2E02181F2E0E9E0208351
:10018C00F2E0E7E02081F2E0E2E02083F2E0E7E059
:10019C002181F2E0E2E02183F2E0E9E0008110E36A
:1001AC00010F0F93F2E0E9E011271083F2E0E7E092
:1001BC0011271193108314C0F2E0E2E021811AE0C0
:1001CC00211B2183208110E0210B2083F2E0E7E04A
:1001DC0011E02181120F118311272081121F10832E
:1001EC00F2E0E2E0119120812A3020E012070CF0BD
:1001FC00E3CFF2E0E2E02181F2E0E9E02083F2E0FB
:10020C00E7E02081F2E0E2E02083F2E0E7E0218108
:10021C00F2E0E2E02183F2E0E9E0008110E3010F7B
:10022C000F93F2E0E9E011271083F2E0E7E01127E9
:10023C001193108314C0F2E0E2E021811AE0211B3B
:10024C002183208110E0210B2083F2E0E7E011E014
:10025C002181120F118311272081121F1083F2E0CC
:10026C00E2E0119120812A3020E012070CF0E3CF5C
:10027C00F2E0E2E02181F2E0E9E02083F2E0E7E065
:10028C002081F2E0E2E02083F2E0E7E02181F2E07D
:10029C00E2E02183F2E0E9E0008110E3010F0F932B
:1002AC00F2E0E9E011271083F2E0E7E01127119367
:1002BC00108314C0F2E0E2E021811AE0211B2183BB
:1002CC00208110E0210B2083F2E0E7E011E0218196
:1002DC00120F118311272081121F1083F2E0E2E02C
:1002EC00119120812A3020E012070CF0E3CFF2E0CC
:1002FC00E2E02181F2E0E9E02083F2E0E7E0208116
:10030C00F2E0E2E02083F2E0E7E02181F2E0E2E0DB
:10031C002183F2E0E9E0008110E3010F0F93F2E09A
:10032C00E9E011271083F2E0E7E011271193108325
:10033C0014C0F2E0E2E021811AE0211B218320812C
:10034C0010E0210B2083F2E0E7E011E02181120F95
:10035C00118311272081121F1083F2E0E2E011912A
:10036C0020812A3020E012070CF0E3CFF2E0E2E02B
:10037C002181F2E0E9E02083F2E0E7E02081F2E085
:10038C00E2E02083F2E0E7E02181F2E0E2E0218389
:10039C00F2E0E9E0008110E3010F0F930F91002FC1
:1003AC003AD048D00F91002F36D044D00F91002F67
:1003BC0032D040D00F91002F2ED03CD00F91002F77
:1003CC002AD038D053D052D051D050D04FD04ED05C
:1003DC004DD04CD00895F2E0E5E011E02181120FF0
:1003EC00118311272081121F1083F2E0E5E0419167
:1003FC0030813A3638E143071895002708B9FFCF0A
:10040C0001BB0000169A00000000000016980000C6
:10041C0000000000089501BB179A000000000000C6
:10042C00169A000000000000169800000000000062
:10043C00179808950F93002700BB01BB159A000075
:10044C00169A0000000000000FB1169807FDF7CFB8
:10045C0015980FEF00BB0F9108958F939F939FE01A
:10046C008CE90197F1F79F918F910895F6DFF5DFF5
:08047C00F4DFF3DFF2DF089565
:00000001FF
