:020000020000FC
:040000000C947200EA
:1000E4000FEF0DBF01E20EBF00EF00930A01662778
:1000F4000FEF00BB01B9002701BB02B900E358D0E0
:1001040071D08CD001E054D06DD006E051D06AD0CB
:100114000EE04ED067D088D03FEE222730930B01FB
:100124000FEF0A95F1F7009109010F700F3061F09C
:1001340031E01127402F432319F40DD00C948D0086
:100144001395330F0C949C00233029F30894331F28
:1001540023950C949000233019F0133021F00FC034
:1001640051E4510F12C0203021F0213021F022300F
:1001740021F05AE20AC050E308C053E206C051E33A
:1001840043E0149F500D520F00C06395052F1BD000
:1001940029D0613109F0BFCF662701E009D022D010
:1001A4000EE006D01FD0052F0ED01CD00C948D006D
:1001B40001BB0000169A0000000000001698000021
:1001C40000000000089501BB179A00000000000021
:1001D400169A0000000000001698000000000000BD
:1001E400179808950F93002700BB01BB159A0000D0
:1001F400169A0000000000000FB1169807FDF7CF13
:1002040015980FEF00BB0F9108958F939F939FE074
:100214008CE90197F1F79F918F910895F6DFF5DF4F
:10022400F4DFF3DFF2DF0895F9DFF8DFF7DFF6DF5D
:10023400F5DFF4DFF3DFF2DFF1DFF0DFEFDFEEDF36
:10024400EDDFECDFEBDFEADFE9DFE8DFE7DFE6DF66
:0202540008950B
:00000001FF
