:020000020000FC
:040000000C9430002C
:10005C000C94370001E20EBF0FEF0DBF0FEF07B985
:10006C0034C00FB70F93DF93CF939F938F938091EF
:10007C00000290910102019684380EE1900721F460
:10008C0023952C33D9F00BC080930002909301027E
:10009C008F919F91CF91DF910F910FBF1895132FD7
:1000AC00110F110F110F110F110F110F122B18B976
:1000BC00C0E0D2E0002709930883EACF22273395CA
:1000CC00343009F0ECCF3327EACF20E028B9C0E078
:1000DC00D2E000270993088300E004BD00E105BDD0
:0A00EC0001E000936E007894FFCF4E
:00000001FF
