:020000020000FC
:040000000C947200EA
:04005C000C94AA0056
:04000C000C94C4008C
:1000E4000FEF0DBF01E20EBFF2E0E2E01127119322
:1000F4001083F2E0E0E0112711931083F2E0E5E0D1
:10010400112711931083F2E0E4E011271083F2E049
:10011400E9E011271083F2E0E7E01127119310833F
:100124000FEF08B90FEF07B95527002704BD01E009
:1001340005BD01E000936E0000E2009369000DB379
:1001440004600DBB78940C94A70058B90C94A700D4
:10015400F2E0E5E011E02181120F118311272081E3
:10016400121F1083F2E0E5E0419130813A3638E124
:10017400430711F00C94C300F2E0E5E0112711935A
:0A01840010831895539558B918958B
:00000001FF
