:020000020000FC
:10000000C8E0D2E0A2E1B2E0F2E0E0E031E03D930E
:10001000F2E0E0E01181208101E0100F00E0201FFC
:10002000F2E0E0E011832083F2E0E0E02191108132
:10003000110F221FF2E0E4E021931083110F221F21
:10004000110F221FF2E0E0E0219310831081F2E013
:10005000E4E02181120FF2E0E0E011832081F2E080
:10006000E4E01081121FF2E0E0E01083F2E0E0E053
:100070001181208103E0100F00E0201FF2E0E0E09A
:1000800011832083F2E0E0E021911081110F221F03
:10009000F2E0E4E021931083110F221F110F221FC1
:1000A000F2E0E0E0219310831081F2E0E4E02181AE
:1000B000120FF2E0E0E011832081F2E0E4E0108131
:1000C000121FF2E0E0E01083F2E0E0E01181208115
:1000D00005E0100F00E0201FF2E0E0E01183208334
:1000E000F2E0E0E021911081110F221FF2E0E4E044
:1000F00021931083110F221F110F221FF2E0E0E065
:10010000219310831081F2E0E4E02181120FF2E0EC
:10011000E0E011832081F2E0E4E01081121FF2E0C0
:10012000E0E01083F2E0E0E01181208107E0100FB1
:1001300000E0201FF2E0E0E011832083F2E0E0E045
:10014000219110812993199311272227F2E0E0E0F1
:100150002193108330E03D93F2E0E0E011812081B3
:1001600002E0100F00E0201FF2E0E0E011832083A6
:10017000F2E0E0E021911081110F221FF2E0E4E0B3
:1001800021931083110F221F110F221FF2E0E0E0D4
:10019000219310831081F2E0E4E02181120FF2E05C
:1001A000E0E011832081F2E0E4E01081121FF2E030
:1001B000E0E01083F2E0E0E01181208104E0100F24
:1001C00000E0201FF2E0E0E011832083F2E0E0E0B5
:1001D00021911081110F221FF2E0E4E0219310839E
:1001E000110F221F110F221FF2E0E0E02193108374
:1001F0001081F2E0E4E02181120FF2E0E0E01183EF
:100200002081F2E0E4E01081121FF2E0E0E01083D0
:10021000F2E0E0E01181208106E0100F00E0201FF5
:10022000F2E0E0E011832083F2E0E0E02191108130
:10023000110F221FF2E0E4E021931083110F221F1F
:10024000110F221FF2E0E0E0219310831081F2E011
:10025000E4E02181120FF2E0E0E011832081F2E07E
:10026000E4E01081121FF2E0E0E01083F2E0E0E051
:100270001181208108E0100F00E0201FF2E0E0E093
:1002800011832083F2E0E0E02191108129931993FA
:1002900011272227F2E0E0E02193108331E03D9323
:1002A000F2E0E0E01181208102E0100F00E0201F69
:1002B000F2E0E0E011832083F2E0E0E021911081A0
:1002C000110F221FF2E0E4E021931083110F221F8F
:1002D000110F221FF2E0E0E0219310831081F2E081
:1002E000E4E02181120FF2E0E0E011832081F2E0EE
:1002F000E4E01081121FF2E0E0E01083F2E0E0E0C1
:100300001181208109E0100F00E0201FF2E0E0E001
:1003100011832083F2E0E0E021911081110F221F70
:10032000F2E0E4E021931083110F221F110F221F2E
:10033000F2E0E0E0219310831081F2E0E4E021811B
:10034000120FF2E0E0E011832081F2E0E4E010819E
:10035000121FF2E0E0E01083F2E0E0E01181208182
:1003600002E0100F00E0201FF2E0E0E011832083A4
:10037000F2E0E0E021911081110F221FF2E0E4E0B1
:1003800021931083110F221F110F221FF2E0E0E0D2
:10039000219310831081F2E0E4E02181120FF2E05A
:1003A000E0E011832081F2E0E4E01081121FF2E02E
:1003B000E0E01083F2E0E0E01181208100E0100F26
:1003C00000E0201FF2E0E0E011832083F2E0E0E0B3
:1003D000219110812993199311272227F2E0E0E05F
:1003E000219310830027C8E0D2E0A2E1B2E0F2E05E
:1003F000E0E0019300830395F2E0E4E02991199194
:10040000219310833D91303089F0F2E0E0E02181CA
:10041000120F11832081F2E0E4E01081211FF2E04D
:10042000E0E020830AF412C0662710C0F2E0E0E0AA
:100430002181211B21832081F2E0E4E01081210B46
:10044000F2E0E0E020830AF001C061E003309CF2BA
:10045000F2E0E0E021911081F2E0E6E021931083E8
:10046000C7E1D2E00C944702F2E0E6E0308130953B
:100470003083318130953183F2E0E6E041E0318133
:10048000340F318330814427341F308360E0613082
:1004900059F3F2E0E6E03081F2E0E4E03083F2E0AC
:1004A000E6E03181F2E0E4E03183F2E0E4E0318142
:1004B0003A30308140E03407A0F000C0F2E0E2E0E2
:1004C00041E03181340F318330814427341F308340
:1004D000F2E0E4E031813A503183308130403083C2
:1004E000E4CF5395F2E0E4E031813993F2E0E2E0C9
:1004F0003081F2E0E6E03083F2E0E2E03181F2E0E8
:10050000E6E031834427F2E0E2E041934083553056
:0805100008F0FFCF0C94470234
:00000001FF
