:020000020000FC
:040000000C947200EA
:04005C000C948C086C
:080004000C94D9080C94DE08ED
:1000E4000FEF0DBF01E20EBFF2E0E5E855275083A4
:1000F400F2E0E6E855275083F2E0E7E8552750831D
:10010400F2E0E5EA55275083F2E0E8E8552750830A
:10011400F2E0EEE155275083F2E0EFE155275083FA
:10012400F2E0EAE855275083F2E0E6EA55275083E7
:10013400F2E0E9E855275083F2E0E9EA55275083D5
:10014400F2E0E4EA5527508360E2F2E0EEE155275D
:100154005083F2E0E1E25527619353955436E1F779
:10016400F2E0E0EA5527508360E0F2E0EEE1552743
:100174005083F2E0E6E95527619353955A30E1F74D
:10018400F2E0E4EB55275083F2E0E8EB5527508387
:10019400F2E0E7EB55275083F2E0E5EB5527519366
:1001A4005083F2E0E9EB55275083F2E0EBEB55275F
:1001B4005083F2E0EAEB55275083F2E0E0EA58E29C
:1001C4006081560F5083F2E0E0E25FE0508300EF7D
:1001D40000930A01002708B90FEF07B9002704BBF1
:1001E4000FEF03BB0FEF0BB900270AB90FEF00BBEA
:1001F40001B9002701BB02B908E32BD744D75FD765
:1002040001E027D740D706E024D73DD70EE021D719
:100214003AD760E0F2E0E0E051E0662F569F5527C0
:10022400602D603021F0619153955015E4F355270A
:10023400662751E55193552761E0F2E0E0E051E093
:10024400662F569F5527602D603021F0619153959C
:100254005015E4F3552766275AE55193552762E074
:10026400F2E0E0E051E0662F569F5527602D6030A4
:1002740021F0619153955015E4F35527662750E218
:100284005193552763E0F2E0E0E051E0662F569F7A
:100294005527602D603021F0619153955015E4F39A
:1002A400552766275DE25193552764E0F2E0E0E0CC
:1002B40051E0662F569F5527602D603021F06191E3
:1002C40053955015E4F3552766275FE55193552759
:1002D40065E0F2E0E0E051E0662F569F5527602D7F
:1002E400603021F0619153955015E4F3552766274A
:1002F4005EE25193552766E0F2E0E0E051E0662FBC
:10030400569F5527602D603021F06191539550150B
:10031400E4F35527662751E45193552767E0F2E04B
:10032400E0E051E0662F569F5527602D603021F0A4
:10033400619153955015E4F35527662752E4519380
:10034400552768E0F2E0E0E051E0662F569F55271C
:10035400602D603021F0619153955015E4F35527D9
:10036400662753E45193552769E0F2E0E0E051E059
:10037400662F569F5527602D603021F0619153956B
:100384005015E4F35527662754E4519355276AE042
:10039400F2E0E0E051E0662F569F5527602D603073
:1003A40021F0619153955015E4F35527662755E4E0
:1003B400519355276BE0F2E0E0E051E0662F569F41
:1003C4005527602D603021F0619153955015E4F369
:1003D4005527662756E4519355276CE0F2E0E0E098
:1003E40051E0662F569F5527602D603021F06191B2
:1003F40053955015E4F35527662757E45193552731
:100404006DE0F2E0E0E051E0662F569F5527602D45
:10041400603021F0619153955015E4F35527662718
:1004240058E4519355276EE0F2E0E0E051E0662F86
:10043400569F5527602D603021F0619153955015DA
:10044400E4F35527662759E4519355276FE0F2E00A
:10045400E0E051E0662F569F5527602D603021F073
:10046400619153955015E4F3552766275AE4519347
:10047400552760E1F2E0E0E051E0662F569F5527F2
:10048400602D603021F0619153955015E4F35527A8
:1004940066275BE45193552761E1F2E0E0E051E027
:1004A400662F569F5527602D603021F0619153953A
:1004B4005015E4F3552766275CE45193552762E110
:1004C400F2E0E0E051E0662F569F5527602D603042
:1004D40021F0619153955015E4F3552766275DE4A7
:1004E4005193552763E1F2E0E0E051E0662F569F17
:1004F4005527602D603021F0619153955015E4F338
:10050400552766275EE45193552764E1F2E0E0E065
:1005140051E0662F569F5527602D603021F0619180
:1005240053955015E4F3552766275FE451935527F7
:1005340065E1F2E0E0E051E0662F569F5527602D1B
:10054400603021F0619153955015E4F355276627E7
:1005540050E55193552766E1F2E0E0E051E0662F63
:10056400569F5527602D603021F0619153955015A9
:10057400E4F35527662752E55193552767E1F2E0E6
:10058400E0E051E0662F569F5527602D603021F042
:10059400619153955015E4F35527662753E551931C
:1005A400552768E1F2E0E0E051E0662F569F5527B9
:1005B400602D603021F0619153955015E4F3552777
:1005C400662754E55193552769E1F2E0E0E051E0F4
:1005D400662F569F5527602D603021F06191539509
:1005E4005015E4F35527662755E5519355276AE1DD
:1005F400F2E0E0E051E0662F569F5527602D603011
:1006040021F0619153955015E4F35527662756E57B
:10061400519355276BE1F2E0E0E051E0662F569FDD
:100624005527602D603021F0619153955015E4F306
:100634005527662757E5519355276CE1F2E0E0E032
:1006440051E0662F569F5527602D603021F061914F
:1006540053955015E4F35527662758E551935527CC
:100664006DE1F2E0E0E051E0662F569F5527602DE2
:10067400603021F0619153955015E4F355276627B6
:1006840059E551935527002704BD02E005BD01E05B
:1006940000936E000FEF0DB900E000939A000093F1
:1006A4009B0001E00093910001E2009390000AE0B6
:1006B400009369000DB303600DBB78940C9462033E
:1006C40001E0C7D4E0D40EE4CFD4DDD405E5CCD426
:1006D400DAD40DE4C9D4D7D400E2C6D4D4D403E523
:1006E400C3D4D1D404E5C0D4CED401E4BDD4CBD496
:1006F40004E5BAD4C8D409E4B7D4C5D40FE4B4D457
:10070400C2D40EE4B1D4BFD403E5AED4BCD40AE35E
:10071400ABD4B9D4F2E0E5E850E050837FD2F2E004
:10072400E5EA00810B30DCF001E093D4ACD40DE4B5
:100734009BD4A9D401E498D4A6D408E595D4A3D431
:1007440000E292D4A0D401E38FD49DD400E38CD4EE
:100754009AD4D0D401E07DD496D40C946203F2E010
:10076400E5EA6081603011F00C94BA030C946203E2
:10077400F2E0E5EA6081F2E0EBE8608301E069D44D
:1007840082D4F2E0E5E851E05083F2E0EAE8008147
:10079400F2E0EBE84081041714F00C94E7030F93A4
:1007A40003E562D470D40F9140E3040F002F5CD4AE
:1007B4006AD40AE359D467D431D2F2E0EAE851E0CA
:1007C4006081560F50830C94C703F2E0E5E850E0D3
:1007D4005083F2E0EAE85527508301E03AD453D439
:1007E400F2E0EAE80081F2E0EBE84081041714F05B
:1007F4000C94660401E02DD446D404E535D443D4E6
:1008040009E432D440D40DE42FD43DD405E42CD4EF
:100814003AD400E229D437D4F2E0EAE8008140E394
:10082400040F002F21D42FD40AE31ED42CD4F6D1E4
:10083400F2E0E5EA00810B30DCF001E00AD423D4D5
:100844000DE412D420D401E40FD41DD408E50CD453
:100854001AD400E209D417D401E306D414D400E373
:1008640003D411D447D401E0F4D30DD40C94EF0392
:10087400F2E0E5EA6081603011F00C9443040C94DA
:10088400FC03F2E0E5EA4081F2E0EAE800817F93CC
:10089400702FF2E0ECE851E0672F569F5527602D4A
:1008A400603021F0619153955015E4F35527662784
:1008B400542F519355277F91F2E0EAE851E060818B
:1008C400560F50830C94EF03F2E0EAE85527508367
:1008D400F2E0E5E850E0508303E5C6D3D4D304E561
:1008E400C3D3D1D30FE4C0D3CED300E5BDD3CBD390
:1008F40000E2BAD3C8D304E5B7D3C5D309E4B4D36B
:10090400C2D30DE4B1D3BFD305E4AED3BCD30AE361
:10091400ABD3B9D383D145E0F2E0E5EA00814017D7
:1009240014F00C94AD0401E094D3ADD30DE49CD346
:10093400AAD301E499D3A7D308E596D3A4D300E2BC
:1009440093D3A1D305E390D39ED3D4D301E081D331
:100954009AD30C94660442E0F2E0E5EA00810417BD
:1009640014F00C94CD0401E074D38DD30DE47CD346
:100974008AD309E479D387D30EE476D384D300E20F
:1009840073D381D302E370D37ED3B4D301E061D3B4
:100994007AD30C946604F2E0E5EA6081603011F0E9
:1009A4000C94D6040C946604F2E0E5EA0081F2E0CB
:1009B400E9EA0083F2E0EAE855275083F2E0EAE846
:1009C400708101E046D35FD3F2E0E6E951E0672F9E
:1009D400569F5527602D603021F061915395501535
:1009E400E4F35527662750815F93F2E0E1E25AE091
:1009F400672F569F5527602D603021F061915395E4
:100A04005015E4F3552766275F9144276191062F1B
:100A14002BD339D343954517CCF3F2E0E9EB51E0FE
:100A24005083F2E0E9EB5081503011F00C94210531
:100A3400552750939A0050939B000C9429055CE32E
:100A440050939A00552750939B000C94290567D224
:100A540000000000F2E0E7EB51E05083F2E0E4EB49
:100A64000081F2E0E8EB408104178CF3F2E0E7EB5D
:100A740050E050830C943E05F2E0E7EB5527508399
:100A8400F2E0E4EB55275083F2E0E5EB5527519370
:100A94005083F2E0EAE870817395F2E0EBE80081BC
:100AA400701711F00C94590577270C94590501E03F
:100AB400D0D2E9D2F2E0E6E951E0672F569F5527FC
:100AC400602D603021F0619153955015E4F3552762
:100AD400662750815F93F2E0E1E25AE0672F569F68
:100AE4005527602D603021F0619153955015E4F342
:100AF400552766275F9144276191062FB5D2C3D24B
:100B040043954517CCF3F2E0EAEB7081713011F0B4
:100B14000C94E305F2E0E9EB55275083F2E0E9EBAE
:100B24005081503011F00C949E05552750939A0033
:100B340050939B000C94A6055CE350939A005527B0
:100B440050939B000C94A605F2E0E7EB51E0508330
:100B540000000000F2E0E4EB0081F2E0E9EA408109
:100B6400041794F3F2E0EAEB55275083F2E0E7EB45
:100B740055275083F2E0E4EB55275083F2E0E5EB90
:100B8400552751935083F2E0E9EB51E05083F2E0B2
:100B9400E9EB5081503011F00C94D7055527509350
:100BA4009A0050939B000C94DF055CE350939A00E9
:100BB400552750939B000C94DF05F2E0E7EB552793
:100BC4005083F2E0EAE87081F2E0ECE851E0672F4C
:100BD400569F5527602D603021F061915395501533
:100BE400E4F3552766270081F2E0E8EB0083F2E0A6
:100BF400EAE851E06081560F5083F2E0EAE80081B0
:100C0400F2E0EBE84081041711F00C942905F2E0BE
:100C1400EAE8552750830C942905FFCF56D255D2C4
:100C240054D253D23FEE222730930B010FEF0A9593
:100C3400F1F7009109010F700F3061F031E01127D5
:100C4400402F432319F40DC00C9410061395330F51
:100C54000C942206233011F30894331F23950C942B
:100C64001606233019F0133019F004C00C94400612
:100C74000C94E6060C94FA060895FFCF103031F078
:100C8400113031F0123031F0133031F00C94500641
:100C94000C949B060C94E2060C94E206F2E0E5E860
:100CA40070817030B1F1F2E0EFE10081F2E0E7EA47
:100CB40040817F93702FF2E0EAEA51E0672F569F5C
:100CC4005527602D603021F0619153955015E4F360
:100CD40055276627542F519355277F91F2E0EFE172
:100CE40051E06081560F5083F2E0E7E855275083C6
:100CF400F2E0E0EA55275083F2E0E0EA58E260814E
:100D0400560F50830930A9F004E1A3D1BCD10C944F
:100D1400E206F2E0E4EA6081F2E0E5EA6083F2E010
:100D2400E4EA55275083F2E0E6EA552750830C9411
:100D34003E06F2E0E5E86081603011F00C94A40610
:100D44000C94500601E085D19ED1F2E0EAE80081DE
:100D5400F2E0EFE140817F93702FF2E0E6E951E0A9
:100D6400672F569F5527602D603021F06191539570
:100D74005015E4F355276627542F519355277F9137
:100D8400F2E0EFE155275083F2E0EAE80081F2E077
:100D9400E1E25AE0602F569F5527602D603021F024
:100DA400619153955015E4F355276627B2E0AAEAFA
:100DB40055276D91619353955A30DCF30C943E069C
:100DC4000C9410060C941006203031F0213011F0F0
:100DD400223021F00C94F2060C94F6060C94F606DC
:100DE40010E02FEF0C94FA060C9410060C941006E5
:100DF400F2E0E5E870817130B9F1F2E0E6EA51E041
:100E04006081560F5083F2E0E6EAF2E0E6EA6081A0
:100E1400633011F00C9410070C945006F2E0E6E8ED
:100E2400512F63E0569F622F6395060E0082F2E015
:100E3400E6E80081F2E0E4EA60815AE0659F00821E
:100E4400502FF2E0E4EA6081650F6083F2E0E6E8A7
:100E540050E36081560F5083F2E0E6E80081002FF2
:100E640003D111D10C941006F2E0E6E8512F63E0AF
:100E7400569F622F6395060E0082F2E0E0EA00813D
:100E8400F2E0E6E840810417D9F1F2E0E7E85527FB
:100E94005083F2E0E6E86081F2E0E0EA6083F2E0A9
:100EA400E6E8508163E0569FF2E0E7E85081050EE2
:100EB400F2E0E8E800826627F2E0E8E80081F2E088
:100EC400E0E051E0602F569F5527602D603021F0FF
:100ED400619153955015E4F3552766270081F2E09C
:100EE400E7EA0083002FC0D0CED000E1B2D0CBD04F
:100EF4000C943407F2E0E7E8552750830C944B0731
:100F0400F2E0E7E851E06081560F5083F2E0E7E851
:100F14000081033079F30C944B070C9410063FEED8
:100F2400222730930B010FEF0A95F1F70091090185
:100F34000F700F3061F031E01127402F432319F473
:100F440011C00C9420081395330F0C949F07233081
:100F540011F00C94AF070C9420080894331F2395C8
:100F64000C949307133011F00C942008223011F0E4
:100F74000C942008D090BB02E0908902DE1411F199
:100F84000C94C407F2E0E9EB51E05083F2E0E9EBA2
:100F94005081503011F00C94D607552750939A0085
:100FA40050939B000C94DE075CE350939A00552702
:100FB40050939B000C94DE07F2E0EBEB50E050837F
:100FC4000C942008F2E0E7EB50E05083F2E0E9EB08
:100FD40050E05083F2E0E9EB5081503011F00C9472
:100FE400FA07552750939A0050939B000C940208DB
:100FF4005CE350939A00552750939B000C9402088D
:10100400D090B902B0908902DB1481F0B0908902CB
:10101400CB1411F00C941308C0902002C4BA0C94A1
:101024001A08C0908902C4BA0C941A08CC24C4BA11
:10103400F2E0EBEB51E050830C942008D090BB021B
:10104400E0908902DE1411F40C942A080C949107A0
:10105400089501BB0000169A0000000000001698D5
:10106400000000000000089501BB179A0000000072
:101074000000169A0000000000001698000000000E
:101084000000179808950F93002700BB01BB159A21
:101094000000169A0000000000000FB1169807FD2A
:1010A400F7CF15980FEF00BB0F9108958F939F937F
:1010B4009FE08CE90197F1F79F918F910895F6DFF6
:1010C400F5DFF4DFF3DFF2DF0895F9DFF8DFF7DFB0
:1010D400F6DFF5DFF4DFF3DFF2DFF1DFF0DFEFDF80
:1010E400EEDFEDDFECDFEBDFEADFE9DFE8DFE7DFB0
:1010F400E6DF0895EADFE9DFE8DFE7DFE6DFE5DFE3
:10110400E4DFE3DFE2DFE1DFE0DFDFDFDEDFDDDFDF
:10111400DCDF0895F090B702E0908902FE1411F428
:101124000C94D808D2E0C5EB91E08981890F8983BA
:1011340099278881891F8883D2E0C5EB8981843609
:10114400888193E0890711F00C94C008D090B9020B
:10115400B0908902DB1481F0B0908902CB1411F0B5
:101164000C94B908C0902002C4BA0C94C008C09072
:101174008902C4BA0C94C008CC24C4BAD2E0C5EB2A
:101184008981843888819EE1890711F00C94D808FC
:10119400D2E0C4EB888183958883D2E0C5EB8827AD
:1011A40089938883D2E0C4EB888188B91895F2E0EA
:1011B400EAEB51E050831895F2E0EAEB51E05083FA
:0211C40018957C
:00000001FF
