:020000020000FC
:040000000C947200EA
:04005C000C94810877
:080004000C94AA080C94AF084B
:1000E4000FEF0DBF01E20EBFF2E0E5E855275083A4
:1000F400F2E0E6E855275083F2E0E7E8552750831D
:10010400F2E0E5EA55275083F2E0E8E8552750830A
:10011400F2E0EEE155275083F2E0EFE155275083FA
:10012400F2E0EAE855275083F2E0E6EA55275083E7
:10013400F2E0E9E855275083F2E0E9EA55275083D5
:10014400F2E0E4EA5527508360E2F2E0EEE155275D
:100154005083F2E0E1E25527619353955436E1F779
:10016400F2E0E0EA5527508360E0F2E0EEE1552743
:100174005083F2E0E6E95527619353955A30E1F74D
:10018400F2E0E4EB55275083F2E0E8EB5527508387
:10019400F2E0E7EB55275083F2E0E5EB5527519366
:1001A4005083F2E0E9EB55275083F2E0EBEB55275F
:1001B4005083F2E0EAEB55275083F2E0E0EA58E29C
:1001C4006081560F5083F2E0E0E25FE0508300EF7D
:1001D40000930A01002708B90FEF07B9002704BBF1
:1001E4000FEF03BB0FEF0BB900270AB90FEF00BBEA
:1001F40001B9002701BB02B908E320D739D754D786
:1002040001E01CD735D706E019D732D70EE016D750
:100214002FD760E0F2E0E0E051E0662F569F5527CB
:10022400602D603021F0619153955015E4F355270A
:10023400662751E55193552761E0F2E0E0E051E093
:10024400662F569F5527602D603021F0619153959C
:100254005015E4F3552766275AE55193552762E074
:10026400F2E0E0E051E0662F569F5527602D6030A4
:1002740021F0619153955015E4F35527662750E218
:100284005193552763E0F2E0E0E051E0662F569F7A
:100294005527602D603021F0619153955015E4F39A
:1002A400552766275DE25193552764E0F2E0E0E0CC
:1002B40051E0662F569F5527602D603021F06191E3
:1002C40053955015E4F3552766275FE55193552759
:1002D40065E0F2E0E0E051E0662F569F5527602D7F
:1002E400603021F0619153955015E4F3552766274A
:1002F4005EE25193552766E0F2E0E0E051E0662FBC
:10030400569F5527602D603021F06191539550150B
:10031400E4F35527662751E45193552767E0F2E04B
:10032400E0E051E0662F569F5527602D603021F0A4
:10033400619153955015E4F35527662752E4519380
:10034400552768E0F2E0E0E051E0662F569F55271C
:10035400602D603021F0619153955015E4F35527D9
:10036400662753E45193552769E0F2E0E0E051E059
:10037400662F569F5527602D603021F0619153956B
:100384005015E4F35527662754E4519355276AE042
:10039400F2E0E0E051E0662F569F5527602D603073
:1003A40021F0619153955015E4F35527662755E4E0
:1003B400519355276BE0F2E0E0E051E0662F569F41
:1003C4005527602D603021F0619153955015E4F369
:1003D4005527662756E4519355276CE0F2E0E0E098
:1003E40051E0662F569F5527602D603021F06191B2
:1003F40053955015E4F35527662757E45193552731
:100404006DE0F2E0E0E051E0662F569F5527602D45
:10041400603021F0619153955015E4F35527662718
:1004240058E4519355276EE0F2E0E0E051E0662F86
:10043400569F5527602D603021F0619153955015DA
:10044400E4F35527662759E4519355276FE0F2E00A
:10045400E0E051E0662F569F5527602D603021F073
:10046400619153955015E4F3552766275AE4519347
:10047400552760E1F2E0E0E051E0662F569F5527F2
:10048400602D603021F0619153955015E4F35527A8
:1004940066275BE45193552761E1F2E0E0E051E027
:1004A400662F569F5527602D603021F0619153953A
:1004B4005015E4F3552766275CE45193552762E110
:1004C400F2E0E0E051E0662F569F5527602D603042
:1004D40021F0619153955015E4F3552766275DE4A7
:1004E4005193552763E1F2E0E0E051E0662F569F17
:1004F4005527602D603021F0619153955015E4F338
:10050400552766275EE45193552764E1F2E0E0E065
:1005140051E0662F569F5527602D603021F0619180
:1005240053955015E4F3552766275FE451935527F7
:1005340065E1F2E0E0E051E0662F569F5527602D1B
:10054400603021F0619153955015E4F355276627E7
:1005540050E55193552766E1F2E0E0E051E0662F63
:10056400569F5527602D603021F0619153955015A9
:10057400E4F35527662752E55193552767E1F2E0E6
:10058400E0E051E0662F569F5527602D603021F042
:10059400619153955015E4F35527662753E551931C
:1005A400552768E1F2E0E0E051E0662F569F5527B9
:1005B400602D603021F0619153955015E4F3552777
:1005C400662754E55193552769E1F2E0E0E051E0F4
:1005D400662F569F5527602D603021F06191539509
:1005E4005015E4F35527662755E5519355276AE1DD
:1005F400F2E0E0E051E0662F569F5527602D603011
:1006040021F0619153955015E4F35527662756E57B
:10061400519355276BE1F2E0E0E051E0662F569FDD
:100624005527602D603021F0619153955015E4F306
:100634005527662757E5519355276CE1F2E0E0E032
:1006440051E0662F569F5527602D603021F061914F
:1006540053955015E4F35527662758E551935527CC
:100664006DE1F2E0E0E051E0662F569F5527602DE2
:10067400603021F0619153955015E4F355276627B6
:1006840059E551935527002704BD02E005BD01E05B
:1006940000936E000FEF0DB900E000939A000093F1
:1006A4009B0001E00093910001E2009390000AE0B6
:1006B400009369000DB303600DBB78940C9462033E
:1006C40001E0BCD4D5D40EE4C4D4D2D405E5C1D45D
:1006D400CFD40DE4BED4CCD400E2BBD4C9D403E55A
:1006E400B8D4C6D404E5B5D4C3D401E4B2D4C0D4D8
:1006F40004E5AFD4BDD409E4ACD4BAD40FE4A9D48E
:10070400B7D40EE4A6D4B4D403E5A3D4B1D40AE395
:10071400A0D4AED4F2E0E5E850E050837BD2F2E01E
:10072400E5EA00810B30DCF001E088D4A1D40DE4CB
:1007340090D49ED401E48DD49BD408E58AD498D473
:1007440000E287D495D401E384D492D400E381D425
:100754008FD4C5D401E072D48BD40C946203F2E03C
:10076400E5EA6081603011F00C94BA030C946203E2
:10077400F2E0E5EA6081F2E0EBE8608301E05ED458
:1007840077D4F2E0E5E851E05083F2E0EAE8008152
:10079400F2E0EBE84081041714F00C94E7030F93A4
:1007A40003E557D465D40F9140E3040F002F51D4CF
:1007B4005FD40AE34ED45CD42DD2F2E0EAE851E0EF
:1007C4006081560F50830C94C703F2E0E5E850E0D3
:1007D4005083F2E0EAE85527508301E02FD448D44F
:1007E400F2E0EAE80081F2E0EBE84081041714F05B
:1007F4000C94660401E022D43BD404E52AD438D412
:1008040009E427D435D40DE424D432D405E421D426
:100814002FD400E21ED42CD4F2E0EAE8008140E3B5
:10082400040F002F16D424D40AE313D421D4F2D114
:10083400F2E0E5EA00810B30DCF001E0FFD318D4EC
:100844000DE407D415D401E404D412D408E501D48A
:100854000FD400E2FED30CD401E3FBD309D400E3AC
:10086400F8D306D43CD401E0E9D302D40C94EF03CA
:10087400F2E0E5EA6081603011F00C9443040C94DA
:10088400FC03F2E0E5EA4081F2E0EAE800817F93CC
:10089400702FF2E0ECE851E0672F569F5527602D4A
:1008A400603021F0619153955015E4F35527662784
:1008B400542F519355277F91F2E0EAE851E060818B
:1008C400560F50830C94EF03F2E0EAE85527508367
:1008D400F2E0E5E850E0508303E5BBD3C9D304E577
:1008E400B8D3C6D30FE4B5D3C3D300E5B2D3C0D3D2
:1008F40000E2AFD3BDD304E5ACD3BAD309E4A9D3A2
:10090400B7D30DE4A6D3B4D305E4A3D3B1D30AE398
:10091400A0D3AED37FD145E0F2E0E5EA00814017F1
:1009240014F00C94AD0401E089D3A2D30DE491D367
:100934009FD301E48ED39CD308E58BD399D300E2F3
:1009440088D396D305E385D393D3C9D301E076D373
:100954008FD30C94660442E0F2E0E5EA00810417C8
:1009640014F00C94CD0401E069D382D30DE471D367
:100974007FD309E46ED37CD30EE46BD379D300E246
:1009840068D376D302E365D373D3A9D301E056D3F6
:100994006FD30C946604F2E0E5EA6081603011F0F4
:1009A4000C94D6040C946604F2E0E5EA0081F2E0CB
:1009B400E9EA0083F2E0EAE855275083F2E0EAE846
:1009C400708101E03BD354D3F2E0E6E951E0672FB4
:1009D400569F5527602D603021F061915395501535
:1009E400E4F35527662750815F93F2E0E1E25AE091
:1009F400672F569F5527602D603021F061915395E4
:100A04005015E4F3552766275F9144276191062F1B
:100A140020D32ED343954517CCF3F2E0E9EB51E014
:100A24005083F2E0E9EB5081503011F00C94210531
:100A3400552750939A0050939B000C9429055CE32E
:100A440050939A00552750939B000C94290571D21A
:100A5400F2E0E7EB51E05083F2E0E4EB0081F2E0F6
:100A6400E8EB408104179CF3F2E0E7EB50E050839D
:100A74000C943C05F2E0E7EB55275083F2E0E4EBFD
:100A840055275083F2E0E5EB552751935083F2E06C
:100A9400EAE870817395F2E0EBE80081701711F0D9
:100AA4000C94570577270C94570501E0C7D2E0D280
:100AB400F2E0E6E951E0672F569F5527602D60303C
:100AC40021F0619153955015E4F355276627508121
:100AD4005F93F2E0E1E25AE0672F569F5527602DBD
:100AE400603021F0619153955015E4F35527662742
:100AF4005F9144276191062FACD2BAD24395451732
:100B0400CCF3F2E0EAEB7081713011F00C94DF0564
:100B1400F2E0E9EB55275083F2E0E9EB50815030E5
:100B240011F00C949C05552750939A0050939B0008
:100B34000C94A4055CE350939A00552750939B00B2
:100B44000C94A405F2E0E7EB51E05083F2E0E4EB0F
:100B54000081F2E0E9EA4081F2E0E7EB55275083B7
:100B6400041784F3F2E0EAEB55275083F2E0E7EB55
:100B740055275083F2E0E4EB55275083F2E0E5EB90
:100B8400552751935083F2E0E9EB51E05083F2E0B2
:100B9400E9EB5081503011F00C94D7055527509350
:100BA4009A0050939B000C94DF055CE350939A00E9
:100BB400552750939B000C94DF05F2E0EAE870811E
:100BC400F2E0ECE851E0672F569F5527602D603026
:100BD40021F0619153955015E4F355276627008160
:100BE400F2E0E8EB0083F2E0EAE851E06081560FBE
:100BF4005083F2E0EAE80081F2E0EBE84081041778
:100C040011F00C942905F2E0EAE8552750830C947E
:100C14002905FFCF4FD24ED24DD24CD23FEE2227E0
:100C240030930B010FEF0A95F1F7009109010F7052
:100C34000F3061F031E01127402F432319F40DC028
:100C44000C940C061395330F0C941E06233011F3E9
:100C54000894331F23950C941206233019F0133093
:100C640019F004C00C943C060C94F0060C94040790
:100C74000895FFCF103031F0113031F0123031F0DF
:100C8400133031F00C944C060C9497060C94DE0649
:100C94000C94DE06F2E0E5E870817030B1F1F2E028
:100CA400EFE10081F2E0E7EA40817F93702FF2E008
:100CB400EAEA51E0672F569F5527602D603021F0F6
:100CC400619153955015E4F355276627542F51939A
:100CD40055277F91F2E0EFE151E06081560F508398
:100CE400F2E0E7E855275083F2E0E0EA5527508325
:100CF400F2E0E0EA58E26081560F50830930A9F02F
:100D040004E19CD1B5D10C94EC06F2E0E4EA6081F4
:100D1400F2E0E5EA6083F2E0E4EA55275083F2E08A
:100D2400E6EA552750830C943A06F2E0E5E8608140
:100D3400603011F00C94A0060C944C0601E07ED1B6
:100D440097D1F2E0EAE80081F2E0EFE140817F939D
:100D5400702FF2E0E6E951E0672F569F5527602D8A
:100D6400603021F0619153955015E4F355276627BF
:100D7400542F519355277F91F2E0EFE1552750838B
:100D8400F2E0EAE80081F2E0E1E25AE0602F569FE7
:100D94005527602D603021F0619153955015E4F38F
:100DA40055276627B2E0AAEA55276D9161935395BA
:100DB4005A30DCF30C943A06F2E0EFE100810130A2
:100DC4004CF000E13BD154D1F2E0EFE1608151E01D
:100DD400651B60830C940C060C940C06203031F0D7
:100DE400213011F0223021F00C94FC060C94000701
:100DF4000C94000710E02FEF0C9404070C940C06DD
:100E04000C940C06F2E0E5E870817130B9F1F2E07F
:100E1400E6EA51E06081560F5083F2E0E6EAF2E040
:100E2400E6EA6081633011F00C941A070C944C06C6
:100E3400F2E0E6E8512F63E0569F622F6395060EB9
:100E44000082F2E0E6E80081F2E0E4EA60815AE040
:100E5400659F0082502FF2E0E4EA6081650F6083B1
:100E6400F2E0E6E850E36081560F5083F2E0E6E8F2
:100E74000081002FEED0FCD00C940C06F2E0E6E8E2
:100E8400512F63E0569F622F6395060E0082F2E0B5
:100E9400E0EA0081F2E0E6E840810417D9F1F2E0EB
:100EA400E7E855275083F2E0E6E86081F2E0E0EA03
:100EB4006083F2E0E6E8508163E0569FF2E0E7E801
:100EC4005081050EF2E0E8E800826627F2E0E8E8E7
:100ED4000081F2E0E0E051E0602F569F5527602D3D
:100EE400603021F0619153955015E4F3552766273E
:100EF4000081F2E0E7EA0083002FABD0B9D000E133
:100F04009DD0B6D00C943E07F2E0E7E85527508315
:100F14000C945507F2E0E7E851E06081560F5083E6
:100F2400F2E0E7E80081033079F30C9455070C9460
:100F34000C063FEE222730930B010FEF0A95F1F7D1
:100F4400009109010F700F3061F031E01127402F3B
:100F5400432319F411C00C9412081395330F0C9405
:100F6400A907233011F00C94B9070C9412080894C3
:100F7400331F23950C949D07133011F00C94120821
:100F8400223011F00C941208D090BB02E090890238
:100F9400DE1411F10C94CE07F2E0E9EB51E050833A
:100FA400F2E0E9EB5081503011F00C94E007552742
:100FB40050939A0050939B000C94E8075CE3509381
:100FC4009A00552750939B000C94E807F2E0EBEB52
:100FD40050E050830C941208F2E0E7EB50E05083A9
:100FE400F2E0E9EB50E05083F2E0E9EB508150305D
:100FF40011F00C940408552750939A0050939B00C9
:101004000C940C085CE350939A00552750939B0072
:101014000C940C08F2E0EBEB51E050830C941208B2
:10102400D090BB02E0908902DE1411F40C941C08E9
:101034000C949B077091200274BB089501BB0000BF
:10104400169A00000000000016980000000000003E
:10105400089501BB179A000000000000169A0000D2
:101064000000000016980000000000001798089582
:101074000F93002700BB01BB159A0000169A0000CD
:10108400000000000FB1169807FDF7CF15980FEF79
:1010940000BB0F9108958F939F939FE08CE9019774
:1010A400F1F79F918F910895F6DFF5DFF4DFF3DF19
:1010B400F2DF0895F9DFF8DFF7DFF6DFF5DFF4DFBD
:1010C400F3DFF2DFF1DFF0DFEFDFEEDFEDDFECDFA8
:1010D400EBDFEADFE9DFE8DFE7DFE6DF0895EADFF9
:1010E400E9DFE8DFE7DFE6DFE5DFE4DFE3DFE2DFD8
:1010F400E1DFE0DFDFDFDEDFDDDFDCDF0895F0905E
:10110400B702E0908902FE1411F1D2E0C5EB91E040
:101114008981890F898399278881891F8883D2E0EF
:10112400C5EB8981843888819EE1890711F00C948C
:10113400A908D2E0C4EB888183958883D2E0C5EB0B
:10114400882789938883D2E0C4EB888188B918956D
:10115400F2E0EAEB51E050831895F2E0EAEB51E05B
:041164005083189507
:00000001FF
