:020000020000FC
:040000000C9430002C
:10005C000C9462000FEF0DBF01E20EBF0FEF00BB5F
:10006C0001B9002701BB02B950E3332744271127FC
:10007C0022270CE362D07BD096D00CE35ED077D0F5
:10008C0089D00CE35AD073D00CE357D070D008E071
:10009C0054D06DD001E051D06AD006E04ED067D07C
:1000AC000EE04BD064D0002704BD02E005BD01E09A
:1000BC0000936E007894FFCF019684380EE1900780
:1000CC0009F018951395882799271A3009F00DC057
:1000DC0023951127263009F008C0222733953A3092
:1000EC0009F003C04395332700C050E3540F052F8C
:1000FC002FD03DD050E3530F052F2AD038D05AE3E0
:10010C00052F26D034D050E3520F052F21D02FD0FD
:10011C0050E3510F052F1CD02AD000E10ED027D070
:10012C0000E10BD024D000E108D021D000E105D0B3
:10013C001ED000E102D01BD0C4CF01BB0000169A28
:10014C000000000000001698000000000000089558
:10015C0001BB179A000000000000169A0000000076
:10016C0000001698000000000000179808950F93E7
:10017C00002700BB01BB159A0000169A0000000076
:10018C0000000FB1169807FDF7CF15980FEF00BBC5
:10019C000F9108958F939F939FE08CE90197F1F74E
:1001AC009F918F910895F6DFF5DFF4DFF3DFF2DF37
:0201BC000895A4
:00000001FF
