:020000020000FC
:100000000C9402000FEF0DBF01E20EBF0FEF00BB1B
:1000100001B9002701BB02B950EF50930A0108E370
:10002000C9D0D8D0F1D008E3C5D0D4D0E4D008E30B
:10003000C1D0D0D008E3BED0CDD008E0BBD0CAD06C
:1000400001E0B8D0C7D006E0B5D0C4D00EE0B2D041
:10005000C1D000E3B6D0BED02224002450E8452E03
:1000600058EA552E552750930002509301025093A1
:10007000020250930302509304025093050208EACF
:1000800099D0A8D04FEE22270C944B0050E050930B
:1000900004020C9442002430C9F340930B015FEF3B
:1000A0005A95F1F7B7D050910402513029F451E03C
:1000B000509305020C94600050E0A6D050930502C6
:1000C000509109015F70503F11F031E01127143059
:1000D00039F0652F632341F01395330F0C946700BB
:1000E000440F23950C944B0051E05093040250911F
:1000F0000502513039F22330A1F01330C1F0512FF5
:10010000550F510F520F53956AE0069E050E505D34
:10011000052D50D05FD0052F54D05CD053940C9453
:1001200042001130E9F0103041F00C9442002030D0
:1001300069F1213041F10C944200200C002450E878
:10014000452E58EA552E01E035D044D000E832D093
:1001500041D0522D65D008EA2DD03CD00C944200FD
:100160002018002450E8452E58EA552E01E022D0F0
:1001700031D000E81FD02ED0522D52D008EA1AD02C
:1001800029D00C94420050E00C94840022240024D6
:1001900050E8452E58EA552E01E00CD01BD000E85F
:1001A00009D018D000E30DD015D008EA03D012D042
:1001B0000C94420001BB1FD0169A1DD016981BD07C
:1001C000089501BB179A17D0169A15D0169813D018
:1001D000179808950F93002700BB01BB159A0BD009
:1001E000169A09D00FB1169807FDF9CF15980FEFA1
:1001F00000BB0F9108958F939F939FE08CE9019727
:10020000F1F79F918F910895F6DFF5DFF4DFF3DFCB
:10021000F2DF0895F9DFF8DFF7DFF6DFF5DF0895A5
:100220006F936FEF543608F46627609301026627D8
:1002300060930002543648F064E6561B6091000259
:100240006395609300020C941A0160910002603083
:1002500069F050930202562F505D042DABDFBADFD8
:100260004394052FAEDFB6DF5091020266276093FC
:1002700000025A3048F06AE0561B60910002639514
:10028000609300020C94390160910002603089F0A3
:100290006091000250930202562F505D042D8ADFB8
:1002A00099DF4394052F8DDF95DF509102020C9466
:1002B0005D01609101026F3F59F3505D042D7ADFBB
:0E02C00089DF4394052F7DDF85DF6F91089560
:00000001FF
