:020000020000FC
:040000000C947200EA
:04000C000C94A002AE
:04005C000C94C90037
:1000E4000FEF0DBF01E20EBFF2E0E2E01127119322
:1000F4001083F2E0E0E0112711931083F2E0E5E0D1
:10010400112711931083F2E0E4E011271083F2E049
:10011400E9E011271083F2E0E7E01127119310833F
:1001240060E30FEF00BB01B9002701BB02B900E394
:100134001AD233D24ED201E016D22FD206E013D215
:100144002CD20EE010D229D20FEF08B90FEF07B965
:100154005527002704BD01E005BD01E000936E00B2
:1001640000E2009369000DB304600DBB0FEF0DB9FD
:1001740000E000939A00002700939B0001E00093A5
:10018400910001E20093900078940C94AD02F2E0A7
:10019400E5E011E02181120F118311272081121F44
:1001A4001083F2E0E5E0419130813A3638E14307CB
:1001B40011F00C949F02F2E0E2E011912081220FF1
:1001C400111FF2E0E7E011932083220F111F220F89
:1001D400111FF2E0E2E0119320832081F2E0E7E0D6
:1001E4001181210FF2E0E2E021831081F2E0E7E0E7
:1001F4002081211FF2E0E2E02083F2E0E9E0112710
:100204001083F2E0E7E011271193108314C0F2E0A9
:10021400E2E0218114E0211B2183208110E0210BE5
:100224002083F2E0E7E011E02181120F118311270E
:100234002081121F1083F2E0E2E01191208124302A
:1002440020E012070CF0E3CFF2E0E2E02181F2E0DB
:10025400E9E02083F2E0E7E02081F2E0E2E02083BD
:10026400F2E0E7E02181F2E0E2E0218301E07BD1EA
:1002740094D1F2E0E9E011271083F2E0E7E01127DE
:100284001193108314C0F2E0E2E021811AE0211BF3
:100294002183208110E0210B2083F2E0E7E011E0CC
:1002A4002181120F118311272081121F1083F2E084
:1002B400E2E0119120812A3020E012070CF0E3CF14
:1002C400F2E0E2E02181F2E0E9E02083F2E0E7E01D
:1002D4002081F2E0E2E02083F2E0E7E02181F2E035
:1002E400E2E02183F2E0E9E07081760F7F93F2E0AF
:1002F400E9E011271083F2E0E7E01127119310835E
:1003040014C0F2E0E2E021811AE0211B2183208164
:1003140010E0210B2083F2E0E7E011E02181120FCD
:10032400118311272081121F1083F2E0E2E0119162
:1003340020812A3020E012070CF0E3CFF2E0E2E063
:100344002181F2E0E9E02083F2E0E7E02081F2E0BD
:10035400E2E02083F2E0E7E02181F2E0E2E02183C1
:10036400F2E0E9E07081760F7F93F2E0E9E05081FA
:1003740058B9F2E0E9E011271083F2E0E7E0112731
:100384001193108314C0F2E0E2E021811AE0211BF2
:100394002183208110E0210B2083F2E0E7E011E0CB
:1003A4002181120F118311272081121F1083F2E083
:1003B400E2E0119120812A3020E012070CF0E3CF13
:1003C400F2E0E2E02181F2E0E9E02083F2E0E7E01C
:1003D4002081F2E0E2E02083F2E0E7E02181F2E034
:1003E400E2E02183F2E0E9E07081760F7F93F2E0AE
:1003F400E9E011271083F2E0E7E01127119310835D
:1004040014C0F2E0E2E021811AE0211B2183208163
:1004140010E0210B2083F2E0E7E011E02181120FCC
:10042400118311272081121F1083F2E0E2E0119161
:1004340020812A3020E012070CF0E3CFF2E0E2E062
:100444002181F2E0E9E02083F2E0E7E02081F2E0BC
:10045400E2E02083F2E0E7E02181F2E0E2E02183C0
:10046400F2E0E9E07081760F7F93F2E0E9E0112792
:100474001083F2E0E7E011271193108314C0F2E037
:10048400E2E021811AE0211B2183208110E0210B6D
:100494002083F2E0E7E011E02181120F118311279C
:1004A4002081121F1083F2E0E2E0119120812A30B2
:1004B40020E012070CF0E3CFF2E0E2E02181F2E069
:1004C400E9E02083F2E0E7E02081F2E0E2E020834B
:1004D400F2E0E7E02181F2E0E2E02183F2E0E9E00A
:1004E4007081760F7F937F91072F48D056D07F91EC
:1004F400072F44D052D07F91072F40D04ED07F9108
:10050400072F3CD04AD07F91072F38D046D072E7CE
:10051400072F34D042D070E7072F30D03ED073E796
:10052400072F2CD03AD0F2E0E2E011271193108388
:10053400F2E0E5E01127119310831895F2E0E2E070
:1005440011E02181120F118311272081121F1083C2
:10055400F2E0E2E018950CE300939A000027009380
:100564009B000C94AD0201BB0000169A0000000031
:1005740000001698000000000000089501BB179ABF
:10058400000000000000169A000000000000169809
:10059400000000000000179808950F93002700BB87
:1005A40001BB159A0000169A0000000000000FB16C
:1005B400169807FDF7CF15980FEF00BB0F9108951C
:1005C4008F939F939FE08CE90197F1F79F918F910F
:1005D4000895F6DFF5DFF4DFF3DFF2DF089588270F
:0C05E400000083958832E4F38827089516
:00000001FF
