:020000020000FC
:040000000C9430002C
:04000C000C948100CF
:10005C000C948C000FEF0DBF01E20EBFF2E0E2E05A
:10006C00112711931083F2E0E0E011271193108314
:10007C00F2E0E5E0112711931083F2E0E4E01127A0
:10008C001083F2E0E9E011271083F2E0E7E011279A
:10009C0011931083F2E0EAE000270193019301939E
:1000AC000193019301930FEF00BB01B9002701BB32
:1000BC0002B900E3CED1E7D102D201E0CAD1E3D13B
:1000CC0006E0C7D1E0D10EE0C4D1DDD10FEF08B905
:1000DC000FEF07B9552700E0009369000DB30460DA
:1000EC000DBB002704BD01E005BD01E000936E00CF
:1000FC0078940C942C02F2E0E2E011E02181120FD2
:10010C00118311272081121F10831895F2E0E5E06E
:10011C0011E02181120F118311272081121F1083EE
:10012C00F2E0E5E0419130813A3638E143075395EE
:10013C0058B909F08AC1F2E0E5E011271193108358
:10014C00F2E0E9E011271083F2E0E7E011271193C8
:10015C00108314C0F2E0E2E0218114E0211B218322
:10016C00208110E0210B2083F2E0E7E011E02181F7
:10017C00120F118311272081121F1083F2E0E2E08D
:10018C0011912081243020E012070CF0E3CFF2E033
:10019C00E2E02181F2E0E9E02083F2E0E7E0208177
:1001AC00F2E0E2E02083F2E0E7E02181F2E0E2E03D
:1001BC002183F2E0E2E04191308101E04AD163D148
:1001CC00F2E0E9E011271083F2E0E7E01127119348
:1001DC00108314C0F2E0E2E021811AE0211B21839C
:1001EC00208110E0210B2083F2E0E7E011E0218177
:1001FC00120F118311272081121F1083F2E0E2E00D
:10020C00119120812A3020E012070CF0E3CFF2E0AC
:10021C00E2E02181F2E0E9E02083F2E0E7E02081F6
:10022C00F2E0E2E02083F2E0E7E02181F2E0E2E0BC
:10023C002183F2E0E9E00081060F002F15D123D1D4
:10024C00F2E0E9E011271083F2E0E7E011271193C7
:10025C00108314C0F2E0E2E021811AE0211B21831B
:10026C00208110E0210B2083F2E0E7E011E02181F6
:10027C00120F118311272081121F1083F2E0E2E08C
:10028C00119120812A3020E012070CF0E3CFF2E02C
:10029C00E2E02181F2E0E9E02083F2E0E7E0208176
:1002AC00F2E0E2E02083F2E0E7E02181F2E0E2E03C
:1002BC002183F2E0E9E00081060F002FD5D0E3D0D6
:1002CC00F2E0E9E011271083F2E0E7E01127119347
:1002DC00108314C0F2E0E2E021811AE0211B21839B
:1002EC00208110E0210B2083F2E0E7E011E0218176
:1002FC00120F118311272081121F1083F2E0E2E00C
:10030C00119120812A3020E012070CF0E3CFF2E0AB
:10031C00E2E02181F2E0E9E02083F2E0E7E02081F5
:10032C00F2E0E2E02083F2E0E7E02181F2E0E2E0BB
:10033C002183F2E0E9E00081060F002F95D0A3D0D5
:10034C00F2E0E9E011271083F2E0E7E011271193C6
:10035C00108314C0F2E0E2E021811AE0211B21831A
:10036C00208110E0210B2083F2E0E7E011E02181F5
:10037C00120F118311272081121F1083F2E0E2E08B
:10038C00119120812A3020E012070CF0E3CFF2E02B
:10039C00E2E02181F2E0E9E02083F2E0E7E0208175
:1003AC00F2E0E2E02083F2E0E7E02181F2E0E2E03B
:1003BC002183F2E0E9E00081060F002F55D063D0D5
:1003CC00F2E0E9E011271083F2E0E7E01127119346
:1003DC00108314C0F2E0E2E021811AE0211B21839A
:1003EC00208110E0210B2083F2E0E7E011E0218175
:1003FC00120F118311272081121F1083F2E0E2E00B
:10040C00119120812A3020E012070CF0E3CFF2E0AA
:10041C00E2E02181F2E0E9E02083F2E0E7E02081F4
:10042C00F2E0E2E02083F2E0E7E02181F2E0E2E0BA
:10043C002183F2E0E9E00081060F002F15D023D0D4
:10044C00F2E0E2E01127119310831895002708B908
:10045C00FFCF01BB0000169A0000000000001698A8
:10046C00000000000000089501BB179A0000000076
:10047C000000169A00000000000016980000000012
:10048C000000179808950F93002700BB01BB159A25
:10049C000000169A0000000000000FB1169807FD2E
:1004AC00F7CF15980FEF00BB0F9108958F939F9383
:1004BC009FE08CE90197F1F79F918F910895F6DFFA
:0A04CC00F5DFF4DFF3DFF2DF08953F
:00000001FF
