:020000020000FC
:020000002EC010
:02000C004EC0E4
:10005C0028C001E20EBF0FEF0DBFA2E0B2E00FEF20
:10006C0001B907B900BB03BB222708E378D087D0BE
:10007C000EE075D084D000E872D081D001E06FD052
:10008C007ED0002704BD02E005BD01E000936E00A8
:10009C0000E20093690004E00DBB78945DC02395E9
:1000AC0018950F930FB70F938F939F938091000226
:1000BC009091010201960FE082349007D9F5C0E0CF
:1000CC00D2E000270993088308F440C0269528B98C
:1000DC00203019F10AE0332755274427422F401BC3
:1000EC0033954017E0F74D935395432F3017332733
:1000FC00B0F74C9353950C91005D38D040D05A9585
:10010C0011F01197F8CF00E231D039D000E22ED0A7
:10011C0036D000E824D033D012C000E327D02FD043
:10012C0000E224D02CD000E221D029D000E817D056
:10013C0026D005C0809300029093010207C0A2E074
:10014C00B2E0332744275527222700C09F918F9177
:10015C000F910FBF0F91189500C0FFCFFFCF01BBC0
:10016C001FD0169A1DD016981BD0089501BB179A54
:10017C0017D0169A15D0169813D0179808950F9378
:10018C00002700BB01BB159A0BD0169A09D00FB1F2
:10019C00169807FDF9CF15980FEF00BB0F91089536
:1001AC008F939F939FE08CE90197F1F79F918F912B
:0C01BC000895F6DFF5DFF4DFF3DF0895AF
:00000001FF
