:020000020000FC
:100000000C9406000C941B000C9425000FEF0DBF00
:1000100001E20EBF0FEF07B90BB900270AB90FE0D5
:1000200008B900E0009369000DB303600DBB0FE059
:1000300078940C942F00552714D013D00A9508B942
:100040000F3F09F018950FE0FACF55270AD009D0D5
:100050000395003111F008B918950027FCCF08B9B5
:10006000FFCF442753950000000003D05F3FC8F343
:1000700008956627439505D0000000004F3FC8F360
:0C0080000895639500006A30E0F30895D5
:00000001FF
