:020000020000FC
:040000000C947200EA
:04000C000C949202BC
:04005C000C94BB0045
:1000E4000FEF0DBF01E20EBFF2E0E2E01127119322
:1000F4001083F2E0E0E0112711931083F2E0E5E0D1
:10010400112711931083F2E0E4E011271083F2E049
:10011400E9E011271083F2E0E7E01127119310833F
:1001240060E30FEF00BB01B9002701BB02B900E394
:1001340007D220D23BD201E003D21CD206E000D287
:1001440019D20EE0FDD116D20FEF08B90FEF07B99F
:100154005527002704BD01E005BD01E000936E00B2
:1001640000E2009369000DB304600DBB78940C9415
:100174009F02F2E0E5E011E02181120F11831127C3
:100184002081121F1083F2E0E5E0419130813A367C
:1001940038E1430711F00C949102F2E0E2E011918E
:1001A4002081220F111FF2E0E7E011932083220F38
:1001B400111F220F111FF2E0E2E01193208320812E
:1001C400F2E0E7E01181210FF2E0E2E02183108107
:1001D400F2E0E7E02081211FF2E0E2E02083F2E098
:1001E400E9E011271083F2E0E7E01127119310836F
:1001F40014C0F2E0E2E0218114E0211B218320817C
:1002040010E0210B2083F2E0E7E011E02181120FDE
:10021400118311272081121F1083F2E0E2E0119173
:100224002081243020E012070CF0E3CFF2E0E2E07A
:100234002181F2E0E9E02083F2E0E7E02081F2E0CE
:10024400E2E02083F2E0E7E02181F2E0E2E02183D2
:1002540001E076D18FD1F2E0E9E011271083F2E0DA
:10026400E7E011271193108314C0F2E0E2E021814A
:100274001AE0211B2183208110E0210B2083F2E06E
:10028400E7E011E02181120F118311272081121F51
:100294001083F2E0E2E0119120812A3020E012077D
:1002A4000CF0E3CFF2E0E2E02181F2E0E9E0208328
:1002B400F2E0E7E02081F2E0E2E02083F2E0E7E030
:1002C4002181F2E0E2E02183F2E0E9E07081760F3F
:1002D4007F93F2E0E9E011271083F2E0E7E01127D1
:1002E4001193108314C0F2E0E2E021811AE0211B93
:1002F4002183208110E0210B2083F2E0E7E011E06C
:100304002181120F118311272081121F1083F2E023
:10031400E2E0119120812A3020E012070CF0E3CFB3
:10032400F2E0E2E02181F2E0E9E02083F2E0E7E0BC
:100334002081F2E0E2E02083F2E0E7E02181F2E0D4
:10034400E2E02183F2E0E9E07081760F7F93F2E04E
:10035400E9E0508158B9F2E0E9E011271083F2E0B6
:10036400E7E011271193108314C0F2E0E2E0218149
:100374001AE0211B2183208110E0210B2083F2E06D
:10038400E7E011E02181120F118311272081121F50
:100394001083F2E0E2E0119120812A3020E012077C
:1003A4000CF0E3CFF2E0E2E02181F2E0E9E0208327
:1003B400F2E0E7E02081F2E0E2E02083F2E0E7E02F
:1003C4002181F2E0E2E02183F2E0E9E07081760F3E
:1003D4007F93F2E0E9E011271083F2E0E7E01127D0
:1003E4001193108314C0F2E0E2E021811AE0211B92
:1003F4002183208110E0210B2083F2E0E7E011E06B
:100404002181120F118311272081121F1083F2E022
:10041400E2E0119120812A3020E012070CF0E3CFB2
:10042400F2E0E2E02181F2E0E9E02083F2E0E7E0BB
:100434002081F2E0E2E02083F2E0E7E02181F2E0D3
:10044400E2E02183F2E0E9E07081760F7F93F2E04D
:10045400E9E011271083F2E0E7E0112711931083FC
:1004640014C0F2E0E2E021811AE0211B2183208103
:1004740010E0210B2083F2E0E7E011E02181120F6C
:10048400118311272081121F1083F2E0E2E0119101
:1004940020812A3020E012070CF0E3CFF2E0E2E002
:1004A4002181F2E0E9E02083F2E0E7E02081F2E05C
:1004B400E2E02083F2E0E7E02181F2E0E2E0218360
:1004C400F2E0E9E07081760F7F937F91072F43D0AC
:1004D40051D07F91072F3FD04DD07F91072F3BD034
:1004E40049D07F91072F37D045D07F91072F33D044
:1004F40041D072E7072F2FD03DD070E7072F2BD0C4
:1005040039D073E7072F27D035D0F2E0E2E0112786
:1005140011931083F2E0E5E01127119310831895ED
:10052400F2E0E2E011E02181120F11831127208112
:10053400121F1083F2E0E2E0189558B90C949F0260
:1005440001BB0000169A000000000000169800008D
:1005540000000000089501BB179A0000000000008D
:10056400169A000000000000169800000000000029
:10057400179808950F93002700BB01BB159A00003C
:10058400169A0000000000000FB1169807FDF7CF7F
:1005940015980FEF00BB0F9108958F939F939FE0E1
:1005A4008CE90197F1F79F918F910895F6DFF5DFBC
:1005B400F4DFF3DFF2DF08958827000083958832A3
:0605C400E4F3882708950E
:00000001FF
