:020000020000FC
:040000000C947200EA
:04005C000C94AC084C
:080004000C94F9080C94FE08AD
:1000E4000FEF0DBF01E20EBFF2E0E5E855275083A4
:1000F400F2E0E6E855275083F2E0E7E8552750831D
:10010400F2E0E5EA55275083F2E0E8E8552750830A
:10011400F2E0EEE155275083F2E0EFE155275083FA
:10012400F2E0EAE855275083F2E0E6EA55275083E7
:10013400F2E0E9E855275083F2E0E9EA55275083D5
:10014400F2E0E4EA5527508360E2F2E0EEE155275D
:100154005083F2E0E1E25527619353955436E1F779
:10016400F2E0E0EA5527508360E0F2E0EEE1552743
:100174005083F2E0E6E95527619353955A30E1F74D
:10018400F2E0E4EB55275083F2E0E8EB5527508387
:10019400F2E0E7EB55275083F2E0E5EB5527519366
:1001A4005083F2E0E9EB55275083F2E0EBEB55275F
:1001B4005083F2E0EAEB55275083F2E0E0EA58E29C
:1001C4006081560F5083F2E0E0E25FE0508300EF7D
:1001D40000930A01002708B90FEF07B9002704BBF1
:1001E4000FEF03BB0FEF0BB900270AB90FEF00BBEA
:1001F40001B9002701BB02B908E34BD764D77FD705
:1002040001E047D760D706E044D75DD70EE041D779
:100214005AD760E0F2E0E0E051E0662F569F5527A0
:10022400602D603021F0619153955015E4F355270A
:10023400662751E55193552761E0F2E0E0E051E093
:10024400662F569F5527602D603021F0619153959C
:100254005015E4F3552766275AE55193552762E074
:10026400F2E0E0E051E0662F569F5527602D6030A4
:1002740021F0619153955015E4F35527662750E218
:100284005193552763E0F2E0E0E051E0662F569F7A
:100294005527602D603021F0619153955015E4F39A
:1002A400552766275DE25193552764E0F2E0E0E0CC
:1002B40051E0662F569F5527602D603021F06191E3
:1002C40053955015E4F3552766275FE55193552759
:1002D40065E0F2E0E0E051E0662F569F5527602D7F
:1002E400603021F0619153955015E4F3552766274A
:1002F4005EE25193552766E0F2E0E0E051E0662FBC
:10030400569F5527602D603021F06191539550150B
:10031400E4F35527662751E45193552767E0F2E04B
:10032400E0E051E0662F569F5527602D603021F0A4
:10033400619153955015E4F35527662752E4519380
:10034400552768E0F2E0E0E051E0662F569F55271C
:10035400602D603021F0619153955015E4F35527D9
:10036400662753E45193552769E0F2E0E0E051E059
:10037400662F569F5527602D603021F0619153956B
:100384005015E4F35527662754E4519355276AE042
:10039400F2E0E0E051E0662F569F5527602D603073
:1003A40021F0619153955015E4F35527662755E4E0
:1003B400519355276BE0F2E0E0E051E0662F569F41
:1003C4005527602D603021F0619153955015E4F369
:1003D4005527662756E4519355276CE0F2E0E0E098
:1003E40051E0662F569F5527602D603021F06191B2
:1003F40053955015E4F35527662757E45193552731
:100404006DE0F2E0E0E051E0662F569F5527602D45
:10041400603021F0619153955015E4F35527662718
:1004240058E4519355276EE0F2E0E0E051E0662F86
:10043400569F5527602D603021F0619153955015DA
:10044400E4F35527662759E4519355276FE0F2E00A
:10045400E0E051E0662F569F5527602D603021F073
:10046400619153955015E4F3552766275AE4519347
:10047400552760E1F2E0E0E051E0662F569F5527F2
:10048400602D603021F0619153955015E4F35527A8
:1004940066275BE45193552761E1F2E0E0E051E027
:1004A400662F569F5527602D603021F0619153953A
:1004B4005015E4F3552766275CE45193552762E110
:1004C400F2E0E0E051E0662F569F5527602D603042
:1004D40021F0619153955015E4F3552766275DE4A7
:1004E4005193552763E1F2E0E0E051E0662F569F17
:1004F4005527602D603021F0619153955015E4F338
:10050400552766275EE45193552764E1F2E0E0E065
:1005140051E0662F569F5527602D603021F0619180
:1005240053955015E4F3552766275FE451935527F7
:1005340065E1F2E0E0E051E0662F569F5527602D1B
:10054400603021F0619153955015E4F355276627E7
:1005540050E55193552766E1F2E0E0E051E0662F63
:10056400569F5527602D603021F0619153955015A9
:10057400E4F35527662752E55193552767E1F2E0E6
:10058400E0E051E0662F569F5527602D603021F042
:10059400619153955015E4F35527662753E551931C
:1005A400552768E1F2E0E0E051E0662F569F5527B9
:1005B400602D603021F0619153955015E4F3552777
:1005C400662754E55193552769E1F2E0E0E051E0F4
:1005D400662F569F5527602D603021F06191539509
:1005E4005015E4F35527662755E5519355276AE1DD
:1005F400F2E0E0E051E0662F569F5527602D603011
:1006040021F0619153955015E4F35527662756E57B
:10061400519355276BE1F2E0E0E051E0662F569FDD
:100624005527602D603021F0619153955015E4F306
:100634005527662757E5519355276CE1F2E0E0E032
:1006440051E0662F569F5527602D603021F061914F
:1006540053955015E4F35527662758E551935527CC
:100664006DE1F2E0E0E051E0662F569F5527602DE2
:10067400603021F0619153955015E4F355276627B6
:1006840059E551935527002704BD02E005BD01E05B
:1006940000936E000FEF0DB900E000939A000093F1
:1006A4009B0001E00093910001E2009390000AE0B6
:1006B400009369000DB303600DBB78940C9462033E
:1006C40001E0E7D400D50EE4EFD4FDD405E5ECD485
:1006D400FAD40DE4E9D4F7D400E2E6D4F4D403E583
:1006E400E3D4F1D404E5E0D4EED401E4DDD4EBD4D6
:1006F40004E5DAD4E8D409E4D7D4E5D40FE4D4D4B7
:10070400E2D40EE4D1D4DFD403E5CED4DCD40AE3BE
:10071400CBD4D9D4F2E0E5E850E0508383D2F2E0C0
:10072400E5EA00810B30DCF001E0B3D4CCD40DE475
:10073400BBD4C9D401E4B8D4C6D408E5B5D4C3D471
:1007440000E2B2D4C0D401E3AFD4BDD400E3ACD44E
:10075400BAD4F0D401E09DD4B6D40C946203F2E090
:10076400E5EA6081603011F00C94BA030C946203E2
:10077400F2E0E5EA6081F2E0EBE8608301E089D42D
:10078400A2D4F2E0E5E851E05083F2E0EAE8008127
:10079400F2E0EBE84081041714F00C94E7030F93A4
:1007A40003E582D490D40F9140E3040F002F7CD44E
:1007B4008AD40AE379D487D435D2F2E0EAE851E066
:1007C4006081560F50830C94C703F2E0E5E850E0D3
:1007D4005083F2E0EAE85527508301E05AD473D4F9
:1007E400F2E0EAE80081F2E0EBE84081041714F05B
:1007F4000C94660401E04DD466D404E555D463D466
:1008040009E452D460D40DE44FD45DD405E44CD44F
:100814005AD400E249D457D4F2E0EAE8008140E334
:10082400040F002F41D44FD40AE33ED44CD4FAD160
:10083400F2E0E5EA00810B30DCF001E02AD443D495
:100844000DE432D440D401E42FD43DD408E52CD4B3
:100854003AD400E229D437D401E326D434D400E3D3
:1008640023D431D467D401E014D42DD40C94EF03F1
:10087400F2E0E5EA6081603011F00C9443040C94DA
:10088400FC03F2E0E5EA4081F2E0EAE800817F93CC
:10089400702FF2E0ECE851E0672F569F5527602D4A
:1008A400603021F0619153955015E4F35527662784
:1008B400542F519355277F91F2E0EAE851E060818B
:1008C400560F50830C94EF03F2E0EAE85527508367
:1008D400F2E0E5E850E0508303E5E6D3F4D304E521
:1008E400E3D3F1D30FE4E0D3EED300E5DDD3EBD3D0
:1008F40000E2DAD3E8D304E5D7D3E5D309E4D4D3CB
:10090400E2D30DE4D1D3DFD305E4CED3DCD30AE3C1
:10091400CBD3D9D387D145E0F2E0E5EA0081401793
:1009240014F00C94AD0401E0B4D3CDD30DE4BCD3E6
:10093400CAD301E4B9D3C7D308E5B6D3C4D300E21C
:10094400B3D3C1D305E3B0D3BED3F4D301E0A1D371
:10095400BAD30C94660442E0F2E0E5EA008104179D
:1009640014F00C94CD0401E094D3ADD30DE49CD3E6
:10097400AAD309E499D3A7D30EE496D3A4D300E26F
:1009840093D3A1D302E390D39ED3D4D301E081D3F4
:100994009AD30C946604F2E0E5EA6081603011F0C9
:1009A4000C94D6040C946604F2E0E5EA0081F2E0CB
:1009B400E9EA0083F2E0EAE855275083F2E0EAE846
:1009C400708101E066D37FD3F2E0E6E951E0672F5E
:1009D400569F5527602D603021F061915395501535
:1009E400E4F35527662750815F93F2E0E1E25AE091
:1009F400672F569F5527602D603021F061915395E4
:100A04005015E4F3552766275F9144276191062F1B
:100A14004BD359D343954517CCF3F2E0E9EB51E0BE
:100A24005083F2E0E9EB5081503011F00C94210531
:100A3400552750939A0050939B000C9429055CE32E
:100A440050939A00552750939B000C94290587D204
:100A54000000000000000000F2E0E7EB51E05083EA
:100A6400F2E0E4EB0081F2E0E8EB408104177CF370
:100A7400F2E0E7EB50E050830C944005F2E0E7EB42
:100A840055275083F2E0E4EB55275083F2E0E5EB81
:100A9400552751935083F2E0EAE870817395F2E0B0
:100AA400EBE80081701711F00C945B0577270C9428
:100AB4005B0501E0EED207D3F2E0E6E951E0672FEF
:100AC400569F5527602D603021F061915395501544
:100AD400E4F35527662750815F93F2E0E1E25AE0A0
:100AE400672F569F5527602D603021F061915395F3
:100AF4005015E4F3552766275F9144276191062F2B
:100B0400D3D2E1D243954517CCF3F2E0EAEB7081FE
:100B1400713011F00C94E705F2E0E9EB55275083AE
:100B2400F2E0E9EB5081503011F00C94A005552708
:100B340050939A0050939B000C94A8055CE3509347
:100B44009A00552750939B000C94A805F2E0E7EB1C
:100B540051E050830000000000000000F2E0E4EBEC
:100B64000081F2E0E9EA4081041784F3F2E0EAEB61
:100B740055275083F2E0E7EB55275083F2E0E4EB8E
:100B840055275083F2E0E5EB552751935083F2E06B
:100B9400E9EB51E05083F2E0E9EB5081503011F081
:100BA4000C94DB05552750939A0050939B000C94AA
:100BB400E3055CE350939A00552750939B000C94F3
:100BC400E305F2E0E7EB55275083F2E0EAE87081B1
:100BD400F2E0ECE851E0672F569F5527602D603016
:100BE40021F0619153955015E4F355276627008150
:100BF400F2E0E8EB0083F2E0EAE851E06081560FAE
:100C04005083F2E0EAE80081F2E0EBE84081041767
:100C140011F00C942905F2E0EAE8552750830C946E
:100C24002905FFCF72D271D270D26FD23FEE222744
:100C340030930B010FEF0A95F1F7009109010F7042
:100C44000F3061F031E01127402F432319F40DC018
:100C54000C9414061395330F0C942606233011F3C9
:100C64000894331F23950C941A06233019F013307B
:100C740019F004C00C9444060C9406070C941A074B
:100C84000895FFCF103031F0113031F0123031F0CF
:100C9400133031F00C9454060C94A7060C940207FC
:100CA4000C940207F2E0E5E870817030F1F1F2E0B3
:100CB400EFE10081F2E0E7EA40817F93702FF2E0F8
:100CC400EAEA51E0672F569F5527602D603021F0E6
:100CD400619153955015E4F355276627542F51938A
:100CE40055277F91F2E0EFE151E06081560F508388
:100CF400F2E0E7E855275083F2E0E7EA552750830E
:100D0400F2E0E7EA50E25083F2E0E0EA552750834C
:100D1400F2E0E0EA58E26081560F50830930A9F00E
:100D240004E1B7D1D0D10C940207F2E0E4EA608187
:100D3400F2E0E5EA6083F2E0E4EA55275083F2E06A
:100D4400E6EA552750830C944206F2E0E5E8608118
:100D5400603011F00C94B0060C945406F2E0EFE10C
:100D64006081603011F00C94B9060C94F70601E030
:100D740090D1A9D1F2E0EAE80081F2E0EFE140810C
:100D84007F93702FF2E0E6E951E0672F569F5527D5
:100D9400602D603021F0619153955015E4F355278F
:100DA4006627542F519355277F91F2E0EFE15527A1
:100DB4005083F2E0EAE80081F2E0E1E25AE0602FD9
:100DC400569F5527602D603021F061915395501541
:100DD400E4F355276627B2E0AAEA55276D9161939B
:100DE40053955A30DCF30C944206F2E0EAE8608151
:100DF40051E0651B608301E04CD165D10C9442063F
:100E04000C9414060C941406203031F0213011F0A7
:100E1400223021F00C9412070C9416070C94160738
:100E240010E02FEF0C941A070C9414060C9414067B
:100E3400F2E0E5E870817130B9F1F2E0E6EA51E000
:100E44006081560F5083F2E0E6EAF2E0E6EA608160
:100E5400633011F00C9430070C945406F2E0E6E889
:100E6400512F63E0569F622F6395060E0082F2E0D5
:100E7400E6E80081F2E0E4EA60815AE0659F0082DE
:100E8400502FF2E0E4EA6081650F6083F2E0E6E867
:100E940050E36081560F5083F2E0E6E80081002FB2
:100EA40003D111D10C941406F2E0E6E8512F63E06B
:100EB400569F622F6395060E0082F2E0E0EA0081FD
:100EC400F2E0E6E840810417D9F1F2E0E7E85527BB
:100ED4005083F2E0E6E86081F2E0E0EA6083F2E069
:100EE400E6E8508163E0569FF2E0E7E85081050EA2
:100EF400F2E0E8E800826627F2E0E8E80081F2E048
:100F0400E0E051E0602F569F5527602D603021F0BE
:100F1400619153955015E4F3552766270081F2E05B
:100F2400E7EA0083002FC0D0CED000E1B2D0CBD00E
:100F34000C945407F2E0E7E8552750830C946B07B0
:100F4400F2E0E7E851E06081560F5083F2E0E7E811
:100F54000081033079F30C946B070C9414063FEE74
:100F6400222730930B010FEF0A95F1F70091090145
:100F74000F700F3061F031E01127402F432319F433
:100F840011C00C9440081395330F0C94BF07233001
:100F940011F00C94CF070C9440080894331F239548
:100FA4000C94B307133011F00C944008223011F064
:100FB4000C944008D090BB02E0908902DE1411F139
:100FC4000C94E407F2E0E9EB51E05083F2E0E9EB42
:100FD4005081503011F00C94F607552750939A0025
:100FE40050939B000C94FE075CE350939A005527A2
:100FF40050939B000C94FE07F2E0EBEB50E050831F
:101004000C944008F2E0E7EB50E05083F2E0E9EBA7
:1010140050E05083F2E0E9EB5081503011F00C9431
:101024001A08552750939A0050939B000C94220859
:101034005CE350939A00552750939B000C9422082C
:10104400D090B902B0908902DB1481F0B09089028B
:10105400CB1411F00C943308C0902002C4BA0C9441
:101064003A08C0908902C4BA0C943A08CC24C4BA91
:10107400F2E0EBEB51E050830C944008D090BB02BB
:10108400E0908902DE1411F40C944A080C94B10720
:10109400089501BB0000169A000000000000169895
:1010A400000000000000089501BB179A0000000032
:1010B4000000169A000000000000169800000000CE
:1010C4000000179808950F93002700BB01BB159AE1
:1010D4000000169A0000000000000FB1169807FDEA
:1010E400F7CF15980FEF00BB0F9108958F939F933F
:1010F4009FE08CE90197F1F79F918F910895F6DFB6
:10110400F5DFF4DFF3DFF2DF0895F9DFF8DFF7DF6F
:10111400F6DFF5DFF4DFF3DFF2DFF1DFF0DFEFDF3F
:10112400EEDFEDDFECDFEBDFEADFE9DFE8DFE7DF6F
:10113400E6DF0895EADFE9DFE8DFE7DFE6DFE5DFA2
:10114400E4DFE3DFE2DFE1DFE0DFDFDFDEDFDDDF9F
:10115400DCDF0895F090B702E0908902FE1411F4E8
:101164000C94F808D2E0C5EB91E08981890F89835A
:1011740099278881891F8883D2E0C5EB89818B38C0
:10118400888192E0890711F00C94E008D090B902AC
:10119400B0908902DB1481F0B0908902CB1411F075
:1011A4000C94D908C0902002C4BA0C94E008C090F2
:1011B4008902C4BA0C94E008CC24C4BAD2E0C5EBCA
:1011C4008981843888819EE1890711F00C94F8089C
:1011D400D2E0C4EB888183958883D2E0C5EB88276D
:1011E40089938883D2E0C4EB888188B91895F2E0AA
:1011F400EAEB51E050831895F2E0EAEB51E05083BA
:0212040018953B
:00000001FF
